:100000000C9446000C9498030C9463000C946300C9
:100010000C9463000C9463000C9463000C946300D4
:100020000C9463000C9463000C9463000C946300C4
:100030000C9463000C9463000C9463000C946300B4
:100040000C942A030C9463000C9463000C946300DA
:100050000C9463000C9463000C9463000C94630094
:100060000C9463000C9463000C9463000C94630084
:100070000C9463000C9463000C9463000C94630074
:100080000C9463000C9463000C94630011241FBE55
:10009000CFEFD0E1DEBFCDBF11E0A0E0B1E0E2E103
:1000A000F8E000E00BBF02C007900D92A035B10749
:1000B000D9F712E0A0E5B1E001C01D92AC3AB1075A
:1000C000E1F70C94F4030C940000611571058105AF
:1000D000910529F06150704080409040F6CF08951E
:1000E00000000895CF93DF93009729F0EC010E9460
:1000F00070002197E1F7DF91CF91089583E794E0B5
:10010000CC9797FFFDCF0895CF93DF93009729F009
:10011000EC010E947E002197E1F7DF91CF910895D5
:100120006AE070E080E090E00E946500AB9A64E1D4
:1001300070E080E090E00E946500AB9864E170E0C0
:1001400080E090E00E946500089589E385BB8FEF11
:1001500084BB0E94900068EE73E080E090E00E9413
:1001600065000E94900068EE73E080E090E00E94DD
:1001700065000E94900068EE73E080E090E00E94CD
:10018000650081E285BB0E94900068EE73E080E02C
:1001900090E00E94650008951F93182F1F709FEF35
:1001A00094BB807F816085BB0E949000812F99273E
:1001B00024E0880F991F2A95E1F7816085BB0E9492
:1001C000900068EE73E080E090E00E9465001F916F
:1001D0000895813019F4862F815802C0862F8154EA
:1001E0000E94CC00089508951F93182F8FEF84BBB1
:1001F000812F807F856085BB0E949000812F992789
:100200008F70907034E0880F991F3A95E1F7856000
:1002100085BB0E94900068EE73E080E090E00E9451
:1002200065001F910895CF93DF93EC0188818823A7
:1002300031F089910E94F40088818823D1F7DF9101
:10024000CF91089581E00E94CC0060E177E280E0E8
:1002500090E00E94650008950E94A50088E20E9437
:10026000CC000E94220186E00E94CC008CE00E941B
:10027000CC0008958091500199278B3F910569F03A
:100280008C3F910524F4873F910529F00AC08D3FEA
:10029000910529F006C08BEF05C08DEF03C08EEFEE
:1002A00001C087EF80935001809150018BBB89B3CF
:1002B00099278E3B910509F462C08F3B910544F567
:1002C0008E37910509F451C08F37910584F48B372F
:1002D000910509F45FC08C37910524F487379105A7
:1002E000E1F160C08D37910509F452C05BC08B3BD2
:1002F000910509F447C08C3B91052CF4873B91058F
:1003000009F442C04FC08D3B910509F445C04AC075
:100310008E3D910561F18F3D910574F48B3D910502
:1003200051F18C3D910524F4873D910531F13AC09E
:100330008D3D9105F1F036C08B3E9105A1F08C3ECC
:10034000910524F4873E910509F12CC08D3E91055D
:1003500041F08E3E910519F025C081E01EC08FE06E
:100360001CC08EE01AC08DE018C08AE016C08BE079
:1003700014C089E012C086E010C083E00EC0109265
:1003800051010DC085E009C082E007C08CE005C0C6
:1003900087E003C084E001C088E08093510110929F
:1003A00054010CC0809154018F5F809354018430BC
:1003B00028F01092540180E1809351018091530103
:1003C000809352019091510190935301981719F421
:1003D00080E190E00895892F99270895089510925B
:1003E000AB02109259021092AA02089520E030E068
:1003F00080528F3510F421E030E0C90108958CB9A6
:100400005D9BFECF0895CF93C3E080E00E94FF0183
:10041000C150C7FFFACFCF9108951F93CF93DF93B9
:10042000EC0113E089910E94FF01115017FFFACFF0
:10043000DF91CF911F9108951F93CF93DF9310E029
:10044000EC0188810E94FF018881882321F01F5FD1
:1004500021961831B0F3DF91CF911F910895FC01DF
:10046000DB0106C090818C91981721F4319611968A
:100470004150C1F780819C91891B99270895CF93A2
:10048000DF93C0E0D0E044E0BC018AE892E00E9443
:100490002F02882311F4C1E0D0E0CE01DF91CF918B
:1004A00008951F93CF93182F9091AB029130F1F4E0
:1004B000C091AA02C43080F40E94F601892B49F051
:1004C000EC2FFF27E657FD4F1083CF5FC093AA02A2
:1004D00031C01092AB022EC08823F1F082E08093ED
:1004E000AB02109391029093590224C09230B9F458
:1004F00080915902112359F08831E0F4E82FFF2749
:10050000EF56FD4F10838F5F8093590213C0E82F81
:10051000FF27EF56FD4F10831093AB020BC00E94D4
:10052000F601892B39F081E08093AB0210938A02A7
:100530008093AA02CF911F9108950F931F93CF9399
:10054000DF93CDB7DEB722970FB6F894DEBF0FBEAC
:10055000CDBF882379F089838E010F5F1F4FF8018B
:10056000118283E191E00E940D02C8010E941C02E9
:100570000E94030222960FB6F894DEBF0FBECDBFD5
:10058000DF91CF911F910F9108951092900082E01A
:1005900089B988E08AB986E0809395000895CF9361
:1005A000C0919002CF5FC03309F4C0E080918E0209
:1005B000C81789F0EC2FFF27E65AFD4F80810E9473
:1005C0005102C0939002CF5FC03309F4C0E0809124
:1005D0008E02C81779F7CF910895DC01FB014150D5
:1005E0004F3F19F081918D93FACF0895FC0141504E
:1005F00011F06193FCCF08950E94220161E0862FE3
:100600000E94E9000895CF93DF93EC0180911201DD
:100610000E949D0280E197E20E94840010928F0266
:1006200080918F02FE01E80FF11D80810E94F4008D
:1006300080918F02FE01E80FF11D80810E949D02D2
:1006400080918F028F5F80938F02893048F3DF9112
:10065000CF9108951F920F920FB60F9211242F93EE
:100660003F934F935F936F937F938F939F93AF933A
:10067000BF93CF93EF93FF9382EE82BF0E943A0124
:10068000C82F8A3010F4805D19C099278C309105ED
:10069000C1F08D30910534F48A30910561F00B97EB
:1006A00061F024C08E309105B1F08E30910574F068
:1006B0000F97B1F01BC08AE201C083E20E94F400F0
:1006C00015C00E94FC0288E291E00EC00E94FC026C
:1006D0008BE291E009C00E94FC0282E391E004C039
:1006E0000E94FC028AE391E00E941301C03171F084
:1006F000CD3041F0EC2FFF27E85EFE4F80810E9455
:100700009D0204C089E091E00E940303FF91EF91F4
:10071000CF91BF91AF919F918F917F916F915F9199
:100720004F913F912F910F900FBE0F901F901895F2
:100730001F920F920FB60F9211242F933F934F9356
:100740005F936F937F938F939F93AF93BF93EF9339
:10075000FF9389E091E00E940303FF91EF91BF9125
:10076000AF919F918F917F916F915F914F913F9149
:100770002F910F900FBE0F901F9018950E9422018D
:1007800061E0862F0E94E90082E491E00E9413015B
:1007900008951F939FEF94BB15BA8FE08ABB9BBB54
:1007A00012BA11BA11E019BF83E080936A0015BE36
:1007B0000E94C5020E942C0185E083BF82EE82BFA9
:1007C00017BF78940E94220161E0862F0E94E90001
:1007D00089E491E00E94130160E573EC80E090E011
:1007E0000E9465001F910895CFEFD0E1DEBFCDBF1D
:1007F00060E573EC80E090E00E9465000E94EF01EC
:100800000E94C90361E082E00E94E9000E94CF02D9
:02081000FDCF1A
:100812003539363431313230613539363436353462
:1008220033617A4B45592000303132333435363713
:1008320038392A2361585A7A4F4B005265646961EC
:100842006C004F66666C696E65004F6E6C696E6512
:100852002100436C6F73652100537461727421002F
:00000001FF
